{
    "address": "0x1D7c209334a1777CCc42210338F80c905942ff46",
    "abi": [
        {
            "inputs": [
                {
                    "internalType": "address",
                    "name": "priceFeedAddress",
                    "type": "address"
                }
            ],
            "stateMutability": "nonpayable",
            "type": "constructor"
        },
        {
            "inputs": [],
            "name": "FundMe__NotOwner",
            "type": "error"
        },
        {
            "inputs": [],
            "name": "MINIMUM_USD",
            "outputs": [
                {
                    "internalType": "uint256",
                    "name": "",
                    "type": "uint256"
                }
            ],
            "stateMutability": "view",
            "type": "function"
        },
        {
            "inputs": [],
            "name": "cheaperWithdraw",
            "outputs": [],
            "stateMutability": "payable",
            "type": "function"
        },
        {
            "inputs": [],
            "name": "fund",
            "outputs": [],
            "stateMutability": "payable",
            "type": "function"
        },
        {
            "inputs": [
                {
                    "internalType": "address",
                    "name": "funder",
                    "type": "address"
                }
            ],
            "name": "getAddressToAmountFunded",
            "outputs": [
                {
                    "internalType": "uint256",
                    "name": "",
                    "type": "uint256"
                }
            ],
            "stateMutability": "view",
            "type": "function"
        },
        {
            "inputs": [
                {
                    "internalType": "uint256",
                    "name": "index",
                    "type": "uint256"
                }
            ],
            "name": "getFunder",
            "outputs": [
                {
                    "internalType": "address",
                    "name": "",
                    "type": "address"
                }
            ],
            "stateMutability": "view",
            "type": "function"
        },
        {
            "inputs": [],
            "name": "getOwner",
            "outputs": [
                {
                    "internalType": "address",
                    "name": "",
                    "type": "address"
                }
            ],
            "stateMutability": "view",
            "type": "function"
        },
        {
            "inputs": [],
            "name": "getPriceFeed",
            "outputs": [
                {
                    "internalType": "contract AggregatorV3Interface",
                    "name": "",
                    "type": "address"
                }
            ],
            "stateMutability": "view",
            "type": "function"
        },
        {
            "inputs": [
                {
                    "internalType": "address",
                    "name": "",
                    "type": "address"
                }
            ],
            "name": "s_addressToAmountFunded",
            "outputs": [
                {
                    "internalType": "uint256",
                    "name": "",
                    "type": "uint256"
                }
            ],
            "stateMutability": "view",
            "type": "function"
        },
        {
            "inputs": [
                {
                    "internalType": "uint256",
                    "name": "",
                    "type": "uint256"
                }
            ],
            "name": "s_funders",
            "outputs": [
                {
                    "internalType": "address",
                    "name": "",
                    "type": "address"
                }
            ],
            "stateMutability": "view",
            "type": "function"
        },
        {
            "inputs": [],
            "name": "s_priceFeed",
            "outputs": [
                {
                    "internalType": "contract AggregatorV3Interface",
                    "name": "",
                    "type": "address"
                }
            ],
            "stateMutability": "view",
            "type": "function"
        },
        {
            "inputs": [],
            "name": "withdraw",
            "outputs": [],
            "stateMutability": "payable",
            "type": "function"
        }
    ],
    "transactionHash": "0xaf28b3d6118c6e96e51aafe205137548fceaf5d04201d75f7e4b124687b981a1",
    "args": [
        "0xD4a33860578De61DBAbDc8BFdb98FD742fA7028e"
    ],
    "numDeployments": 2,
    "solcInputHash": "5c609abe13b3db14e6a461f109d4e0ba",
    "bytecode": "0x60a06040523480156200001157600080fd5b50604051620013af380380620013af833981810160405281019062000037919062000120565b3373ffffffffffffffffffffffffffffffffffffffff1660808173ffffffffffffffffffffffffffffffffffffffff1660601b8152505080600260006101000a81548173ffffffffffffffffffffffffffffffffffffffff021916908373ffffffffffffffffffffffffffffffffffffffff1602179055505062000152565b600080fd5b600073ffffffffffffffffffffffffffffffffffffffff82169050919050565b6000620000e882620000bb565b9050919050565b620000fa81620000db565b81146200010657600080fd5b50565b6000815190506200011a81620000ef565b92915050565b600060208284031215620001395762000138620000b6565b5b6000620001498482850162000109565b91505092915050565b60805160601c6112306200017f600039600081816102e80152818161057601526106ef01526112306000f3fe60806040526004361061009c5760003560e01c80636b69a592116100645780636b69a5921461018d578063893d20e8146101b85780639e87a5cd146101e3578063b60d42881461020e578063be2693f014610218578063d7b4750c146102225761009c565b80630343fb25146100a15780630ec3b027146100de5780631bf6132d146101095780633ccfd60b1461014657806354861af714610150575b600080fd5b3480156100ad57600080fd5b506100c860048036038101906100c39190610bbe565b61025f565b6040516100d59190610c04565b60405180910390f35b3480156100ea57600080fd5b506100f36102a8565b6040516101009190610c7e565b60405180910390f35b34801561011557600080fd5b50610130600480360381019061012b9190610bbe565b6102ce565b60405161013d9190610c04565b60405180910390f35b61014e6102e6565b005b34801561015c57600080fd5b5061017760048036038101906101729190610cc5565b610526565b6040516101849190610d01565b60405180910390f35b34801561019957600080fd5b506101a2610565565b6040516101af9190610c04565b60405180910390f35b3480156101c457600080fd5b506101cd610572565b6040516101da9190610d01565b60405180910390f35b3480156101ef57600080fd5b506101f861059a565b6040516102059190610c7e565b60405180910390f35b6102166105c4565b005b6102206106ed565b005b34801561022e57600080fd5b5061024960048036038101906102449190610cc5565b610991565b6040516102569190610d01565b60405180910390f35b6000600160008373ffffffffffffffffffffffffffffffffffffffff1673ffffffffffffffffffffffffffffffffffffffff168152602001908152602001600020549050919050565b600260009054906101000a900473ffffffffffffffffffffffffffffffffffffffff1681565b60016020528060005260406000206000915090505481565b7f000000000000000000000000000000000000000000000000000000000000000073ffffffffffffffffffffffffffffffffffffffff163373ffffffffffffffffffffffffffffffffffffffff161461036b576040517f579610db00000000000000000000000000000000000000000000000000000000815260040160405180910390fd5b60005b6000805490508110156104165760008082815481106103905761038f610d1c565b5b9060005260206000200160009054906101000a900473ffffffffffffffffffffffffffffffffffffffff1690506000600160008373ffffffffffffffffffffffffffffffffffffffff1673ffffffffffffffffffffffffffffffffffffffff1681526020019081526020016000208190555050808061040e90610d7a565b91505061036e565b50600067ffffffffffffffff81111561043257610431610dc3565b5b6040519080825280602002602001820160405280156104605781602001602082028036833780820191505090505b5060009080519060200190610476929190610ab4565b5060003373ffffffffffffffffffffffffffffffffffffffff164760405161049d90610e23565b60006040518083038185875af1925050503d80600081146104da576040519150601f19603f3d011682016040523d82523d6000602084013e6104df565b606091505b5050905080610523576040517f08c379a000000000000000000000000000000000000000000000000000000000815260040161051a90610e95565b60405180910390fd5b50565b6000818154811061053657600080fd5b906000526020600020016000915054906101000a900473ffffffffffffffffffffffffffffffffffffffff1681565b6802b5e3af16b188000081565b60007f0000000000000000000000000000000000000000000000000000000000000000905090565b6000600260009054906101000a900473ffffffffffffffffffffffffffffffffffffffff16905090565b6802b5e3af16b1880000610603600260009054906101000a900473ffffffffffffffffffffffffffffffffffffffff16346109d890919063ffffffff16565b1015610644576040517f08c379a000000000000000000000000000000000000000000000000000000000815260040161063b90610f01565b60405180910390fd5b6000339080600181540180825580915050600190039060005260206000200160009091909190916101000a81548173ffffffffffffffffffffffffffffffffffffffff021916908373ffffffffffffffffffffffffffffffffffffffff16021790555034600160003373ffffffffffffffffffffffffffffffffffffffff1673ffffffffffffffffffffffffffffffffffffffff16815260200190815260200160002081905550565b7f000000000000000000000000000000000000000000000000000000000000000073ffffffffffffffffffffffffffffffffffffffff163373ffffffffffffffffffffffffffffffffffffffff1614610772576040517f579610db00000000000000000000000000000000000000000000000000000000815260040160405180910390fd5b6000808054806020026020016040519081016040528092919081815260200182805480156107f557602002820191906000526020600020905b8160009054906101000a900473ffffffffffffffffffffffffffffffffffffffff1673ffffffffffffffffffffffffffffffffffffffff16815260200190600101908083116107ab575b5050505050905060005b815181101561088057600082828151811061081d5761081c610d1c565b5b602002602001015190506000600160008373ffffffffffffffffffffffffffffffffffffffff1673ffffffffffffffffffffffffffffffffffffffff1681526020019081526020016000208190555050808061087890610d7a565b9150506107ff565b50600067ffffffffffffffff81111561089c5761089b610dc3565b5b6040519080825280602002602001820160405280156108ca5781602001602082028036833780820191505090505b50600090805190602001906108e0929190610ab4565b5060003373ffffffffffffffffffffffffffffffffffffffff164760405161090790610e23565b60006040518083038185875af1925050503d8060008114610944576040519150601f19603f3d011682016040523d82523d6000602084013e610949565b606091505b505090508061098d576040517f08c379a000000000000000000000000000000000000000000000000000000000815260040161098490610e95565b60405180910390fd5b5050565b60008082815481106109a6576109a5610d1c565b5b9060005260206000200160009054906101000a900473ffffffffffffffffffffffffffffffffffffffff169050919050565b6000806109e483610a14565b90506000670de0b6b3a764000085836109fd9190610f21565b610a079190610faa565b9050809250505092915050565b6000808273ffffffffffffffffffffffffffffffffffffffff1663feaf968c6040518163ffffffff1660e01b815260040160a06040518083038186803b158015610a5d57600080fd5b505afa158015610a71573d6000803e3d6000fd5b505050506040513d601f19601f82011682018060405250810190610a959190611068565b5050509150506402540be40081610aac91906110e3565b915050919050565b828054828255906000526020600020908101928215610b2d579160200282015b82811115610b2c5782518260006101000a81548173ffffffffffffffffffffffffffffffffffffffff021916908373ffffffffffffffffffffffffffffffffffffffff16021790555091602001919060010190610ad4565b5b509050610b3a9190610b3e565b5090565b5b80821115610b57576000816000905550600101610b3f565b5090565b600080fd5b600073ffffffffffffffffffffffffffffffffffffffff82169050919050565b6000610b8b82610b60565b9050919050565b610b9b81610b80565b8114610ba657600080fd5b50565b600081359050610bb881610b92565b92915050565b600060208284031215610bd457610bd3610b5b565b5b6000610be284828501610ba9565b91505092915050565b6000819050919050565b610bfe81610beb565b82525050565b6000602082019050610c196000830184610bf5565b92915050565b6000819050919050565b6000610c44610c3f610c3a84610b60565b610c1f565b610b60565b9050919050565b6000610c5682610c29565b9050919050565b6000610c6882610c4b565b9050919050565b610c7881610c5d565b82525050565b6000602082019050610c936000830184610c6f565b92915050565b610ca281610beb565b8114610cad57600080fd5b50565b600081359050610cbf81610c99565b92915050565b600060208284031215610cdb57610cda610b5b565b5b6000610ce984828501610cb0565b91505092915050565b610cfb81610b80565b82525050565b6000602082019050610d166000830184610cf2565b92915050565b7f4e487b7100000000000000000000000000000000000000000000000000000000600052603260045260246000fd5b7f4e487b7100000000000000000000000000000000000000000000000000000000600052601160045260246000fd5b6000610d8582610beb565b91507fffffffffffffffffffffffffffffffffffffffffffffffffffffffffffffffff821415610db857610db7610d4b565b5b600182019050919050565b7f4e487b7100000000000000000000000000000000000000000000000000000000600052604160045260246000fd5b600081905092915050565b50565b6000610e0d600083610df2565b9150610e1882610dfd565b600082019050919050565b6000610e2e82610e00565b9150819050919050565b600082825260208201905092915050565b7f43616c6c206661696c6564000000000000000000000000000000000000000000600082015250565b6000610e7f600b83610e38565b9150610e8a82610e49565b602082019050919050565b60006020820190508181036000830152610eae81610e72565b9050919050565b7f596f75206e65656420746f2073656e64206d6f72652045544821000000000000600082015250565b6000610eeb601a83610e38565b9150610ef682610eb5565b602082019050919050565b60006020820190508181036000830152610f1a81610ede565b9050919050565b6000610f2c82610beb565b9150610f3783610beb565b9250817fffffffffffffffffffffffffffffffffffffffffffffffffffffffffffffffff0483118215151615610f7057610f6f610d4b565b5b828202905092915050565b7f4e487b7100000000000000000000000000000000000000000000000000000000600052601260045260246000fd5b6000610fb582610beb565b9150610fc083610beb565b925082610fd057610fcf610f7b565b5b828204905092915050565b600069ffffffffffffffffffff82169050919050565b610ffa81610fdb565b811461100557600080fd5b50565b60008151905061101781610ff1565b92915050565b6000819050919050565b6110308161101d565b811461103b57600080fd5b50565b60008151905061104d81611027565b92915050565b60008151905061106281610c99565b92915050565b600080600080600060a0868803121561108457611083610b5b565b5b600061109288828901611008565b95505060206110a38882890161103e565b94505060406110b488828901611053565b93505060606110c588828901611053565b92505060806110d688828901611008565b9150509295509295909350565b60006110ee8261101d565b91506110f98361101d565b9250827f7fffffffffffffffffffffffffffffffffffffffffffffffffffffffffffffff048211600084136000841316161561113857611137610d4b565b5b817f8000000000000000000000000000000000000000000000000000000000000000058312600084126000841316161561117557611174610d4b565b5b827f800000000000000000000000000000000000000000000000000000000000000005821260008413600084121616156111b2576111b1610d4b565b5b827f7fffffffffffffffffffffffffffffffffffffffffffffffffffffffffffffff05821260008412600084121616156111ef576111ee610d4b565b5b82820290509291505056fea2646970667358221220fea330ed5b549c18e4a19b05657759dca8ee297640e2123c59343c80360ca38f64736f6c63430008080033",
    "devdoc": {
        "author": "Kevin",
        "details": "This implements price feeds as our library",
        "kind": "dev",
        "methods": {
            "fund()": {
                "details": "This implements price feeds as our library"
            }
        },
        "title": "A contract for crowd funding",
        "version": 1
    },
    "userdoc": {
        "kind": "user",
        "methods": {
            "fund()": {
                "notice": "This function funds this contract"
            }
        },
        "notice": "This contract is to demo a sample funding contract",
        "version": 1
    },
    "storageLayout": {
        "storage": [
            {
                "astId": 63,
                "contract": "contracts/FundMe.sol:FundMe",
                "label": "s_funders",
                "offset": 0,
                "slot": "0",
                "type": "t_array(t_address)dyn_storage"
            },
            {
                "astId": 67,
                "contract": "contracts/FundMe.sol:FundMe",
                "label": "s_addressToAmountFunded",
                "offset": 0,
                "slot": "1",
                "type": "t_mapping(t_address,t_uint256)"
            },
            {
                "astId": 72,
                "contract": "contracts/FundMe.sol:FundMe",
                "label": "s_priceFeed",
                "offset": 0,
                "slot": "2",
                "type": "t_contract(AggregatorV3Interface)45"
            }
        ],
        "types": {
            "t_address": {
                "encoding": "inplace",
                "label": "address",
                "numberOfBytes": "20"
            },
            "t_array(t_address)dyn_storage": {
                "base": "t_address",
                "encoding": "dynamic_array",
                "label": "address[]",
                "numberOfBytes": "32"
            },
            "t_contract(AggregatorV3Interface)45": {
                "encoding": "inplace",
                "label": "contract AggregatorV3Interface",
                "numberOfBytes": "20"
            },
            "t_mapping(t_address,t_uint256)": {
                "encoding": "mapping",
                "key": "t_address",
                "label": "mapping(address => uint256)",
                "numberOfBytes": "32",
                "value": "t_uint256"
            },
            "t_uint256": {
                "encoding": "inplace",
                "label": "uint256",
                "numberOfBytes": "32"
            }
        }
    }
}